:020000040800F2
:1000000000500020F9060008090600080F06000845
:10001000150600081B060008210600080000000065
:10002000000000000000000000000000270600089B
:1000300033060008000000003F0600084B060008D9
:100040004107000841070008410700084107000870
:100050004107000841070008410700084107000860
:100060004107000841070008410700084107000850
:100070004107000841070008590600084107000829
:100080004107000841070008410700084107000830
:100090004107000841070008410700084107000820
:1000A0004107000841070008410700084107000810
:1000B0004107000841070008410700084107000800
:1000C00041070008410700084107000841070008F0
:1000D000410700086D0600084107000841070008B5
:1000E0004107000841070008410700080000000020
:1000F0000000000000000000000000000000000000
:0C01000000000000000000005FF808F1A3
:10010C0010B5054C237833B9044B13B10448AFF345
:10011C0000800123237010BD70000020000000003F
:10012C008430000808B5034B1BB103490348AFF3F7
:10013C00008008BD0000000074000020843000081E
:10014C00034613F8012B002AFBD1181A013870470B
:10015C0080B483B000AF786000BF0C37BD4680BC64
:10016C00704780B483B000AF786000BF0C37BD46D9
:10017C0080BC704780B582B000AF78607B68234A42
:10018C0093423ED12249234802F03CFB2148FFF721
:10019C00D7FF03469BB21A461E491C4801F0DEFDF0
:1001AC001D4B1B780133DAB21B4B1A701B4B1B68AF
:1001BC0001331A4A1360184B1B78023B184AD35C64
:1001CC000D2B17D1144B1B78013B154AD35C0A2B12
:1001DC0010D1114B00221A700E48FFF7B1FF0346E5
:1001EC009AB24FF6FF730B49084801F0F4FC0B4B25
:1001FC000B4A1A60094B1B6801221946034801F08F
:10020C007CFD00BF0837BD4680BD00BF84010020C7
:10021C009C3000088C000020300100202C010020B4
:10022C00AC00002080B500AF00F086FA00F04AF870
:10023C0000F0D4F800F0B4F800F088F81A491B4824
:10024C0002F0E0FA1948FFF77BFF03469BB21A460F
:10025C001649174801F082FD01224FF40051154850
:10026C0001F020F8144B154A1A60134B1B6801223D
:10027C0019460F4801F041FD4FF400510D4801F0B3
:10028C0029F80F49094802F0BDFA0848FFF758FF52
:10029C0003469BB21A460549054801F05FFD4FF431
:1002AC007A7000F0ABFAE7E7A83000088C00002069
:1002BC0084010020001001402C010020AC00002023
:1002CC00BC30000880B590B000AF07F118032822AD
:1002DC000021184602F08EFA3B1D00221A605A606B
:1002EC009A60DA601A610123BB614FF48033FB61C1
:1002FC0000233B620123BB6202237B634FF48033F8
:10030C00BB634FF40023FB6307F11803184600F09E
:10031C00FBFF0346002B01D000F0BAF80F237B60E3
:10032C000223BB600023FB6000233B6100237B6145
:10033C003B1D0121184601F067FA0346002B01D042
:10034C0000F0A6F800BF4037BD4680BD80B500AFB9
:10035C00114B124A1A60104B4FF461425A600E4B0B
:10036C0000229A600C4B0022DA600B4B00221A61BF
:10037C00094B0C225A61084B00229A61064B002251
:10038C00DA61054801F0DAFB0346002B01D000F0DE
:10039C007FF800BF80BD00BF840100200038014001
:1003AC0080B582B000AF0C4B5B690B4A43F0010384
:1003BC005361094B5B6903F001037B607B6800228E
:1003CC0000210E2000F015FB0E2000F02EFB00BFCC
:1003DC000837BD4680BD00BF0010024080B588B014
:1003EC0000AF07F1100300221A605A609A60DA60BD
:1003FC00244B9B69234A43F010039361214B9B6967
:10040C0003F01003FB60FB681E4B9B691D4A43F015
:10041C00200393611B4B9B6903F02003BB60BB68FB
:10042C00184B9B69174A43F004039361154B9B6966
:10043C0003F004037B607B6800224FF400511248E8
:10044C0000F030FF4FF400533B6101237B6100232C
:10045C00BB610223FB6107F1100319460A4800F047
:10046C009DFD4FF400633B6100237B610023BB6166
:10047C0007F110031946054800F090FD00BF203726
:10048C00BD4680BD00100240001001400008014034
:10049C0080B400AF72B600BFFEE7000080B485B038
:1004AC0000AF154B9B69144A43F001039361124B47
:1004BC009B6903F00103BB60BB680F4BDB690E4A01
:1004CC0043F08053D3610C4BDB6903F080537B60AA
:1004DC007B680A4B5B68FB60FB6823F0E063FB60A6
:1004EC00FB6843F00073FB60044AFB68536000BF79
:1004FC001437BD4680BC704700100240000001401C
:10050C0080B588B000AF786007F1100300221A6044
:10051C005A609A60DA607B681B68334A93425FD1F9
:10052C00324B9B69314A43F4804393612F4B9B6957
:10053C0003F48043FB60FB682C4B9B692B4A43F014
:10054C0004039361294B9B6903F00403BB60BB68F4
:10055C004FF400733B6102237B610323FB6107F1C2
:10056C0010031946224800F019FD4FF480633B61DB
:10057C0000237B610023BB6107F1100319461C4863
:10058C0000F00CFD1B4B1C4A1A601A4B10225A60CF
:10059C00184B00229A60174B8022DA60154B002210
:1005AC001A61144B00225A61124B00229A61114BB2
:1005BC000022DA610F4800F053FA0346002B01D0F9
:1005CC00FFF766FF7B680B4A5A630A4A7B685362E3
:1005DC0000220021252000F00CFA252000F025FA3D
:1005EC0000BF2037BD4680BD0038014000100240DE
:1005FC0000080140400100204400024080B400AFDC
:10060C00FEE780B400AFFEE780B400AFFEE780B435
:10061C0000AFFEE780B400AFFEE780B400AF00BFD0
:10062C00BD4680BC704780B400AF00BFBD4680BCE7
:10063C00704780B400AF00BFBD4680BC704780B52A
:10064C0000AF00F0BFF800BF80BD000080B500AF68
:10065C00024800F06FFB00BF80BD00BF40010020CE
:10066C0080B500AF024801F0E5FB00BF80BD00BFC4
:10067C008401002080B586B000AF7860144A154B19
:10068C00D31A7B617B693B61134B1B68002B02D136
:10069C00114B124A1A60104B1A687B6813443A6962
:1006AC009A4207D202F07CF803460C221A604FF0F3
:1006BC00FF3309E0084B1B68FB60074B1A687B682B
:1006CC001344054A1360FB6818461837BD4680BDB5
:1006DC00005000200004000034010020E001002044
:1006EC0080B400AF00BFBD4680BC70470C480D49BC
:1006FC000D4A002302E0D458C4500433C4188C4271
:10070C00F9D30A4A0A4C002301E013600432A242D6
:10071C00FBD3FFF7E5FF02F049F8FFF783FD7047C5
:10072C00000000207000002028310008700000201C
:10073C00DC010020FEE7000080B500AF084B1B6811
:10074C00074A43F010031360032000F047F9002020
:10075C0000F008F8FFF7A2FE0023184680BD00BF8A
:10076C000020024080B582B000AF7860124B1A684E
:10077C00124B1B7819464FF47A73B3FBF1F3B2FBAF
:10078C00F3F3184600F05FF90346002B01D0012368
:10079C000EE07B680F2B0AD8002279684FF0FF30EF
:1007AC0000F027F9064A7B681360002300E0012360
:1007BC0018460837BD4680BD000000200800002008
:1007CC000400002080B400AF054B1B781A46054B83
:1007DC001B681344034A136000BFBD4680BC7047BE
:1007EC0008000020C801002080B400AF024B1B6839
:1007FC001846BD4680BC7047C801002080B584B047
:10080C0000AF7860FFF7F0FFB8607B68FB60FB68B7
:10081C00B3F1FF3F05D00A4B1B781A46FB68134413
:10082C00FB6000BFFFF7E0FF0246BB68D31AFA6813
:10083C009A42F7D800BF00BF1037BD4680BD00BF3D
:10084C000800002080B485B000AF78607B6803F0AE
:10085C000703FB600C4BDB68BB60BA684FF6FF0309
:10086C001340BB60FB681A02BB68134343F0BF63C1
:10087C0043F40033BB60044ABB68D36000BF143739
:10088C00BD4680BC704700BF00ED00E080B400AFF7
:10089C00044BDB681B0A03F007031846BD4680BCFB
:1008AC00704700BF00ED00E080B483B000AF03469A
:1008BC00FB7197F90730002B0BDBFB7903F01F0260
:1008CC00064997F907305B09012000FA02F241F85A
:1008DC00232000BF0C37BD4680BC704700E100E010
:1008EC0080B483B000AF03463960FB7197F90730D1
:1008FC00002B0ADB3B68DAB20C4997F9073012017E
:10090C00D2B20B4483F800230AE03B68DAB2084900
:10091C00FB7903F00F03043B1201D2B20B441A769D
:10092C0000BF0C37BD4680BC704700BF00E100E043
:10093C0000ED00E080B489B000AFF860B9607A6077
:10094C00FB6803F00703FB61FB69C3F10703042B8E
:10095C0028BF0423BB61FB690433062B02D9FB6956
:10096C00033B00E000237B614FF0FF32BB6902FACE
:10097C0003F3DA43BB681A407B699A404FF0FF31AE
:10098C007B6901FA03F3D9437B680B401343184688
:10099C002437BD4680BC704780B582B000AF78600C
:1009AC007B68013BB3F1807F01D301230FE00A4A3E
:1009BC007B68013B53600F214FF0FF30FFF790FF36
:1009CC00054B00229A60044B07221A60002318463C
:1009DC000837BD4680BD00BF10E000E080B582B096
:1009EC0000AF78607868FFF72DFF00BF0837BD4671
:1009FC0080BD80B586B000AF0346B9607A60FB73EA
:100A0C0000237B61FFF742FF78617A68B9687869E7
:100A1C00FFF790FF024697F90F3011461846FFF783
:100A2C005FFF00BF1837BD4680BD80B582B000AFF8
:100A3C000346FB7197F907301846FFF735FF00BFE7
:100A4C000837BD4680BD80B582B000AF786078684D
:100A5C00FFF7A2FF034618460837BD4680BD0000CD
:100A6C0080B485B000AF78600023FB607B68002BFE
:100A7C0001D1012343E07B681B681A46224B1344C7
:100A8C00224AA2FB03231B099A007B681A647B6829
:100A9C001F4ADA637B68022283F821207B681B687B
:100AAC001B68FB60FB6823F47F5323F03003FB606F
:100ABC007B685A687B689B681A437B68DB681A43BF
:100ACC007B681B691A437B685B691A437B689B696B
:100ADC001A437B68DB691343FA681343FB607B683A
:100AEC001B68FA681A607B6800229A637B68012293
:100AFC0083F821207B68002283F8202000231846ED
:100B0C001437BD4680BC7047F8FFFDBFCDCCCCCCB4
:100B1C000000024080B586B000AFF860B9607A6022
:100B2C003B600023FB75FB6893F82030012B01D14F
:100B3C0002234AE0FB68012283F82020FB6893F82B
:100B4C002130012B3AD1FB68022283F82120FB686B
:100B5C0000229A63FB681B681A68FB681B6822F00A
:100B6C0001021A603B687A68B968F86800F0E8F925
:100B7C00FB68DB6A002B08D0FB681B681A68FB68F3
:100B8C001B6842F00E021A600FE0FB681B681A68C3
:100B9C00FB681B6822F004021A60FB681B681A6869
:100BAC00FB681B6842F00A021A60FB681B681A6833
:100BBC00FB681B6842F001021A6005E0FB6800222A
:100BCC0083F820200223FB75FB7D18461837BD46A1
:100BDC0080BD80B485B000AF78600023FB737B6868
:100BEC0093F82130022B08D07B6804229A637B682F
:100BFC00002283F82020012320E07B681B681A6800
:100C0C007B681B6822F00E021A607B681B681A68EE
:100C1C007B681B6822F001021A607B681A6C7B6887
:100C2C00DB6B012101FA02F25A607B68012283F826
:100C3C0021207B68002283F82020FB7B1846143788
:100C4C00BD4680BC7047000080B584B000AF7860B2
:100C5C000023FB737B6893F82130022B05D07B6853
:100C6C0004229A630123FB7351E07B681B681A68AA
:100C7C007B681B6822F00E021A607B681B681A687E
:100C8C007B681B6822F001021A607B681B68224A91
:100C9C00934229D07B681B68204A934222D07B6800
:100CAC001B681F4A93421AD07B681B681D4A9342EB
:100CBC0012D07B681B681C4A93420AD07B681B6865
:100CCC001A4A934202D14FF480130EE04FF0807316
:100CDC000BE04FF4803308E04FF4805305E04FF401
:100CEC00807302E0102300E00123114A53607B68FB
:100CFC00012283F821207B68002283F820207B6866
:100D0C005B6B002B03D07B685B6B78689847FB7B35
:100D1C0018461037BD4680BD080002401C0002403A
:100D2C003000024044000240580002406C00024077
:100D3C000000024080B584B000AF78607B68DB6B4C
:100D4C001B68FB607B681B681B68BB607B681B6C4B
:100D5C0004229A40FB681340002B4FD0BB6803F071
:100D6C000403002B4AD07B681B681B6803F020032C
:100D7C00002B07D17B681B681A687B681B6822F004
:100D8C0004021A607B681B68664A934229D07B6810
:100D9C001B68654A934222D07B681B68634A934266
:100DAC001AD07B681B68624A934212D07B681B681E
:100DBC00604A93420AD07B681B685F4A934202D117
:100DCC004FF480030EE04FF080630BE04FF4802370
:100DDC0008E04FF4804305E04FF4806302E04023C9
:100DEC0000E00423554A53607B68DB6A002B00F05B
:100DFC0094807B68DB6A786898478EE07B681B6C14
:100E0C0002229A40FB681340002B56D0BB6803F0BB
:100E1C000203002B51D07B681B681B6803F0200376
:100E2C00002B0BD17B681B681A687B681B6822F04F
:100E3C000A021A607B68012283F821207B681B68F8
:100E4C00384A934229D07B681B68374A934222D098
:100E5C007B681B68354A93421AD07B681B68344AFE
:100E6C00934212D07B681B68324A93420AD07B684B
:100E7C001B68314A934202D14FF400130EE04FF03D
:100E8C0000730BE04FF4003308E04FF4005305E01F
:100E9C004FF4007302E0202300E00223274A536042
:100EAC007B68002283F820207B689B6A002B34D05F
:100EBC007B689B6A786898472FE07B681B6C0822DC
:100ECC009A40FB681340002B28D0BB6803F0080342
:100EDC00002B23D07B681B681A687B681B6822F088
:100EEC000E021A607B681A6C7B68DB6B012101FABD
:100EFC0002F25A607B6801229A637B68012283F8B4
:100F0C0021207B68002283F820207B681B6B002B40
:100F1C0004D07B681B6B7868984700BF00BF103704
:100F2C00BD4680BD080002401C000240300002405B
:100F3C0044000240580002406C0002400000024095
:100F4C0080B485B000AFF860B9607A603B60FB6834
:100F5C001A6CFB68DB6B012101FA02F25A60FB6828
:100F6C001B683A685A60FB685B68102B08D1FB68F9
:100F7C001B687A689A60FB681B68BA68DA6007E0DD
:100F8C00FB681B68BA689A60FB681B687A68DA6051
:100F9C0000BF1437BD4680BC7047000080B48BB0D6
:100FAC0000AF7860396000237B6200233B6269E10B
:100FBC0001227B6A02FA03F3FB613B681B68FA6946
:100FCC001340BB61BA69FB699A4240F058813B6897
:100FDC005B689A4A93425ED0984A934275D8984A75
:100FEC00934258D0964A93426FD8964A934252D025
:100FFC00944A934269D8944A93424CD0924A934271
:10100C0063D8924A934246D0904A93425DD8122BB1
:10101C002AD8122B59D801A252F823F0A310000899
:10102C007D1000088F100008D1100008D7100008A0
:10103C00D7100008D7100008D7100008D7100008E8
:10104C00D7100008D7100008D7100008D7100008D8
:10105C00D7100008D7100008D7100008D7100008C8
:10106C008510000899100008794A934213D02CE09F
:10107C003B68DB683B6229E03B68DB6804333B621E
:10108C0024E03B68DB6808333B621FE03B68DB68AD
:10109C000C333B621AE03B689B68002B02D10423A3
:1010AC003B6213E03B689B68012B05D108233B6234
:1010BC007B68FA691A6109E008233B627B68FA696C
:1010CC005A6103E000233B6200E000BFBB69FF2BC9
:1010DC0001D87B6801E07B6804337B61BB69FF2B23
:1010EC0002D87B6A9B0002E07B6A083B9B003B6159
:1010FC007B691A680F213B6901FA03F3DB431A4041
:10110C00396A3B6901FA03F31A437B691A603B683D
:10111C005B6803F08053002B00F0B1804D4B9B6952
:10112C004C4A43F0010393614A4B9B6903F0010362
:10113C00BB60BB68484A7B6A9B08023352F8233079
:10114C00FB607B6A03F003039B000F2202FA03F39C
:10115C00DB43FA681340FB607B68404A934213D030
:10116C007B683F4A93420DD07B683E4A934207D03E
:10117C007B683D4A934201D1032306E0042304E03B
:10118C00022302E0012300E000237A6A02F003024A
:10119C0092009340FA681343FB602F497B6A9B08CB
:1011AC000233FA6841F823203B685B6803F4803310
:1011BC00002B06D02D4B1A682C49BB6913430B60CE
:1011CC0006E02A4B1A68BB69DB43284913400B60C5
:1011DC003B685B6803F40033002B06D0234B5A6842
:1011EC002249BB6913434B6006E0204B5A68BB692C
:1011FC00DB431E4913404B603B685B6803F4801370
:10120C00002B06D0194B9A681849BB6913438B60A5
:10121C0006E0164B9A68BB69DB43144913408B609C
:10122C003B685B6803F40013002B21D00F4BDA688A
:10123C000E49BB691343CB6021E000BF00003210A4
:10124C0000003110000022100000211000001210CC
:10125C000000111000100240000001400008014085
:10126C00000C01400010014000140140000401403A
:10127C000B4BDA68BB69DB4309491340CB607B6AD3
:10128C0001337B623B681A687B6A22FA03F3002BFA
:10129C007FF48EAE00BF00BF2C37BD4680BC7047BC
:1012AC000004014080B483B000AF78600B467B80B3
:1012BC0013467B707B78002B03D07A887B681A618D
:1012CC0003E07B881A047B681A6100BF0C37BD46AB
:1012DC0080BC704780B485B000AF78600B467B80D3
:1012EC007B68DB68FB607A88FB6813401A04FB6838
:1012FC00D9437B880B401A437B681A6100BF1437B3
:10130C00BD4680BC7047000080B586B000AF7860E9
:10131C007B68002B01D101236CE27B681B6803F016
:10132C000103002B00F08780924B5B6803F00C03E9
:10133C00042B0CD08F4B5B6803F00C03082B12D1E1
:10134C008C4B5B6803F48033B3F5803F0BD1894B36
:10135C001B6803F40033002B6CD07B685B68002B9C
:10136C0068D1012346E27B685B68B3F5803F06D108
:10137C00804B1B687F4A43F4803313602EE07B68FC
:10138C005B68002B0CD17B4B1B687A4A23F48033AF
:10139C001360784B1B68774A23F4802313601DE09D
:1013AC007B685B68B3F5A02F0CD1724B1B68714A3C
:1013BC0043F4802313606F4B1B686E4A43F48033F5
:1013CC0013600BE06B4B1B686A4A23F48033136089
:1013DC00684B1B68674A23F4802313607B685B6847
:1013EC00002B13D0FFF700FA386108E0FFF7FCF987
:1013FC0002463B69D31A642B01D90323FAE15D4BF6
:10140C001B6803F40033002BF0D014E0FFF7ECF969
:10141C00386108E0FFF7E8F902463B69D31A642B00
:10142C0001D90323E6E1534B1B6803F40033002B73
:10143C00F0D100E000BF7B681B6803F00203002BB7
:10144C0063D04C4B5B6803F00C03002B0BD0494B67
:10145C005B6803F00C03082B1CD1464B5B6803F450
:10146C008033002B16D1434B1B6803F00203002B77
:10147C0005D07B681B69012B01D00123BAE13D4BE0
:10148C001B6823F0F8027B685B69DB003949134366
:10149C000B603AE07B681B69002B20D0364B012295
:1014AC001A60FFF7A1F9386108E0FFF79DF90246D1
:1014BC003B69D31A022B01D903239BE12D4B1B68EB
:1014CC0003F00203002BF0D02A4B1B6823F0F80228
:1014DC007B685B69DB00274913430B6015E0264BE7
:1014EC0000221A60FFF780F9386108E0FFF77CF9F9
:1014FC0002463B69D31A022B01D903237AE11D4B17
:10150C001B6803F00203002BF0D17B681B6803F00F
:10151C000803002B3AD07B689B69002B19D0174B22
:10152C0001221A60FFF760F9386108E0FFF75CF9F7
:10153C0002463B69D31A022B01D903235AE10D4B06
:10154C005B6A03F00203002BF0D0012000F0D8FA04
:10155C001CE00A4B00221A60FFF746F938610FE0D5
:10156C00FFF742F902463B69D31A022B08D9032331
:10157C0040E100BF001002400000424280044242A1
:10158C009E4B5B6A03F00203002BE9D17B681B685E
:10159C0003F00403002B00F0A6800023FB75974B8F
:1015AC00DB6903F08053002B0DD1944BDB69934A1C
:1015BC0043F08053D361914BDB6903F08053BB60E4
:1015CC00BB680123FB758E4B1B6803F48073002BE7
:1015DC0018D18B4B1B688A4A43F480731360FFF756
:1015EC0003F9386108E0FFF7FFF802463B69D31AAC
:1015FC00642B01D90323FDE0814B1B6803F480733A
:10160C00002BF0D07B68DB68012B06D17B4B1B6A6F
:10161C007A4A43F0010313622DE07B68DB68002BF0
:10162C000CD1764B1B6A754A23F001031362734B82
:10163C001B6A724A23F0040313621CE07B68DB68AC
:10164C00052B0CD16D4B1B6A6C4A43F004031362DF
:10165C006A4B1B6A694A43F0010313620BE0674B48
:10166C001B6A664A23F001031362644B1B6A634ACC
:10167C0023F0040313627B68DB68002B15D0FFF7A3
:10168C00B3F838610AE0FFF7AFF802463B69D31AAA
:10169C0041F28832934201D90323ABE0574B1B6ACA
:1016AC0003F00203002BEED014E0FFF79DF8386135
:1016BC000AE0FFF799F802463B69D31A41F28832E7
:1016CC00934201D9032395E04C4B1B6A03F00203B0
:1016DC00002BEED1FB7D012B05D1484BDB69474A32
:1016EC0023F08053D3617B68DB69002B00F0818091
:1016FC00424B5B6803F00C03082B61D07B68DB6901
:10170C00022B46D13F4B00221A60FFF76DF838616F
:10171C0008E0FFF769F802463B69D31A022B01D99E
:10172C00032367E0354B1B6803F00073002BF0D1EB
:10173C007B681B6AB3F5803F08D1304B5B6823F4A0
:10174C0000327B689B682D4913434B602B4B5B68C5
:10175C0023F474127B68196A7B685B6A0B43274914
:10176C0013434B60274B01221A60FFF73DF8386199
:10177C0008E0FFF739F802463B69D31A022B01D96E
:10178C00032337E01D4B1B6803F00073002BF0D0D4
:10179C002FE01C4B00221A60FFF726F8386108E096
:1017AC00FFF722F802463B69D31A022B01D9032317
:1017BC0020E0124B1B6803F00073002BF0D118E0F3
:1017CC007B68DB69012B01D1012313E00B4B5B68B8
:1017DC00FB60FB6803F480327B681B6A9A4206D17B
:1017EC00FB6803F470127B685B6A9A4201D0012398
:1017FC0000E0002318461837BD4680BD001002409B
:10180C00007000406000424280B584B000AF786048
:10181C0039607B68002B01D10123D0E06A4B1B6837
:10182C0003F007033A689A4210D9674B1B6823F000
:10183C00070265493B6813430B60634B1B6803F05D
:10184C0007033A689A4201D00123B8E07B681B6811
:10185C0003F00203002B20D07B681B6803F0040309
:10186C00002B05D0594B5B68584A43F4E063536036
:10187C007B681B6803F00803002B05D0534B5B6897
:10188C00524A43F460535360504B5B6823F0F002B0
:10189C007B689B684D4913434B607B681B6803F066
:1018AC000103002B40D07B685B68012B07D1474BB1
:1018BC001B6803F40033002B15D101237FE07B68F8
:1018CC005B68022B07D1414B1B6803F00073002BA4
:1018DC0009D1012373E03D4B1B6803F00203002B7D
:1018EC0001D101236BE0394B5B6823F003027B6869
:1018FC005B68364913434B60FEF776FFF8600AE0ED
:10190C00FEF772FF0246FB68D31A41F2883293420B
:10191C0001D9032353E02D4B5B6803F00C027B6869
:10192C005B689B009A42EBD1274B1B6803F00703C3
:10193C003A689A4210D2244B1B6823F007022249C2
:10194C003B6813430B60204B1B6803F007033A689A
:10195C009A4201D0012332E07B681B6803F0040338
:10196C00002B08D0194B5B6823F4E0627B68DB68C2
:10197C00164913434B607B681B6803F00803002B6C
:10198C0009D0124B5B6823F460527B681B69DB0047
:10199C000E4913434B6000F021F802460B4B5B6879
:1019AC001B0903F00F030A49CB5C22FA03F3094A23
:1019BC001360094B1B681846FEF7D4FE002318462B
:1019CC001037BD4680BD00BF002002400010024011
:1019DC00D4300008000000200400002090B48AB02D
:1019EC0000AF2A4B3C1D0FCB84E80F0040F20123C3
:1019FC003B800023FB610023BB6100237B6200233F
:101A0C007B6100233B62224B5B68FB61FB6903F04B
:101A1C000C03042B02D0082B03D02DE01D4B3B6292
:101A2C002DE0FB699B0C03F00F0307F12802134414
:101A3C0013F8243C7B61FB6903F48033002B13D037
:101A4C00134B5B685B0C03F0010307F12802134492
:101A5C0013F8283CBB617B690E4A02FB03F2BB699D
:101A6C00B2FBF3F37B6204E07B690B4A02FB03F3EA
:101A7C007B627B6A3B6202E0064B3B6200BF3B6AC7
:101A8C0018462837BD4690BC704700BFC4300008CC
:101A9C000010024000127A0000093D0080B400AF33
:101AAC00024B1B681846BD4680BC704700000020E6
:101ABC0080B500AFFFF7F2FF0246054B5B681B0ACF
:101ACC0003F007030349CB5C22FA03F3184680BDED
:101ADC0000100240E430000880B500AFFFF7DEFFD5
:101AEC000246054B5B68DB0A03F007030349CB5C3A
:101AFC0022FA03F3184680BD00100240E4300008BF
:101B0C0080B485B000AF78600A4B1B680A4AA2FB10
:101B1C0003235B0A7A6802FB03F3FB6000BFFB68DC
:101B2C005A1EFA60002BF9D100BF00BF1437BD4616
:101B3C0080BC704700000020D34D621080B582B08D
:101B4C0000AF78607B68002B01D101233FE07B68FC
:101B5C0093F83D30DBB2002B06D17B68002283F872
:101B6C003C207868FEF7CCFC7B68242283F83D206F
:101B7C007B681B68DA687B681B6822F40052DA60A9
:101B8C00786800F07FFD7B681B681A697B681B68AE
:101B9C0022F490421A617B681B685A697B681B6847
:101BAC0022F02A025A617B681B68DA687B681B6822
:101BBC0042F40052DA607B6800221A647B682022AF
:101BCC0083F83D207B68202283F83E2000231846B2
:101BDC000837BD4680BD80B58AB002AFF860B960E9
:101BEC003B601346FB8000237B61FB6893F83D3020
:101BFC00DBB2202B7CD1BB68002B02D0FB88002BE6
:101C0C0001D1012375E0FB6893F83C30012B01D125
:101C1C0002236EE0FB68012283F83C20FB68002263
:101C2C001A64FB68212283F83D20FEF7DDFD786104
:101C3C00FB68FA889A84FB68FA88DA84FB689B68EC
:101C4C00B3F5805F08D1FB681B69002B04D100231E
:101C5C00FB61BB68BB6103E0BB68FB610023BB613C
:101C6C00FB68002283F83C202AE03B6800937B69E8
:101C7C0000228021F86800F01CFB0346002B01D0E9
:101C8C00032336E0FB69002B0BD1BB691B881A467A
:101C9C00FB681B68C2F308025A60BB690233BB6164
:101CAC0007E0FB691A78FB681B685A60FB69013313
:101CBC00FB61FB68DB8C9BB2013B9AB2FB68DA845C
:101CCC00FB68DB8C9BB2002BCFD13B6800937B690C
:101CDC0000224021F86800F0ECFA0346002B01D0FA
:101CEC00032306E0FB68202283F83D20002300E05C
:101CFC00022318462037BD4680BD80B584B000AFA6
:101D0C00F860B9601346FB80FB6893F83E30DBB299
:101D1C00202B1DD1BB68002B02D0FB88002B01D1DE
:101D2C00012316E0FB6893F83C30012B01D1022310
:101D3C000FE0FB68012283F83C20FB6800221A6349
:101D4C00FB881A46B968F86800F0FDFA034600E013
:101D5C00022318461037BD4680BD000080B586B002
:101D6C0000AFF860B9601346FB80FB6893F83D3018
:101D7C00DBB2202B53D1BB68002B02D0FB88002B8D
:101D8C0001D101234CE0FB6893F83C30012B01D1CD
:101D9C00022345E0FB68012283F83C20BA68FB680B
:101DAC001A62FB68FA889A84FB68FA88DA84FB6802
:101DBC0000221A64FB68212283F83D20FB685B6BD0
:101DCC00194A9A62FB685B6B184ADA62FB685B6BB8
:101DDC00174A1A63FB685B6B00225A6307F108030E
:101DEC007B61FB68586B7B691968FB681B68043363
:101DFC001A46FB88FEF78EFEFB681B686FF04002EC
:101E0C001A60FB68002283F83C20FB681B685A6947
:101E1C00FB681B6842F080025A61002300E0022339
:101E2C0018461837BD4680BDBD2100080F2200089A
:101E3C002B22000880B58AB000AF78607B681B68E5
:101E4C001B687B627B681B68DB683B627B681B687A
:101E5C005B69FB610023BB6100237B617B6A03F040
:101E6C000F03BB61BB69002B0DD17B6A03F0200310
:101E7C00002B08D03B6A03F02003002B03D07868BA
:101E8C0000F056FB7BE1BB69002B00F0B180FB69D5
:101E9C0003F00103002B05D13B6A03F49073002B74
:101EAC0000F0A6807B6A03F00103002B0AD03B6A8A
:101EBC0003F48073002B05D07B681B6C43F001028C
:101ECC007B681A647B6A03F00403002B0AD0FB695D
:101EDC0003F00103002B05D07B681B6C43F002025E
:101EEC007B681A647B6A03F00203002B0AD0FB693F
:101EFC0003F00103002B05D07B681B6C43F004023C
:101F0C007B681A647B6A03F00803002B0FD03B6AD2
:101F1C0003F02003002B04D1FB6903F00103002B19
:101F2C0005D07B681B6C43F008027B681A647B68E5
:101F3C001B6C002B00F01E817B6A03F02003002B2E
:101F4C0007D03B6A03F02003002B02D0786800F026
:101F5C00EFFA7B681B685B6903F04003002B14BF2E
:101F6C0001230023DBB27B617B681B6C03F008034D
:101F7C00002B02D17B69002B31D0786800F031FA4C
:101F8C007B681B685B6903F04003002B23D07B68E4
:101F9C001B685A697B681B6822F040025A617B6897
:101FAC009B6B002B13D07B689B6B764A5A637B68C8
:101FBC009B6B1846FEF748FE0346002B16D07B6839
:101FCC009B6B5B6B7A68926B104698470EE0786857
:101FDC0000F0DAF80AE0786800F0D6F806E07868E5
:101FEC0000F0D2F87B6800221A64C3E000BFC1E0A5
:101FFC007B681B6B012B40F0A1807B6A03F0100304
:10200C00002B00F09B803B6A03F01003002B00F0C8
:10201C0095800023FB607B681B681B68FB607B68FA
:10202C001B685B68FB60FB687B681B685B6903F083
:10203C004003002B4ED07B689B6B1B685B683B821C
:10204C003B8A002B00F098807B689B8D3A8A9A42E1
:10205C0080F092807B683A8ADA857B689B6B9B69FF
:10206C00202B2BD07B681B68DA687B681B6822F4FA
:10207C008072DA607B681B685A697B681B6822F087
:10208C0001025A617B681B685A697B681B6822F0E5
:10209C0040025A617B68202283F83E207B68002234
:1020AC001A637B681B68DA687B681B6822F0100275
:1020BC00DA607B689B6B1846FEF78BFD7B689A8D0C
:1020CC007B68DB8D9BB2D31A9BB21946786800F003
:1020DC0064F851E07B689A8D7B68DB8D9BB2D31AD8
:1020EC007B827B68DB8D9BB2002B47D07B8A002BDD
:1020FC0044D07B681B68DA687B681B6822F490729A
:10210C00DA607B681B685A697B681B6822F00102E5
:10211C005A617B68202283F83E207B6800221A6378
:10212C007B681B68DA687B681B6822F01002DA6037
:10213C007B8A1946786800F030F81FE07B6A03F060
:10214C008003002B08D03B6A03F08003002B03D0E4
:10215C00786800F086F912E07B6A03F04003002BEC
:10216C000DD03B6A03F04003002B08D0786800F0D8
:10217C00C7F904E000BF02E000BF00E000BF283751
:10218C00BD4680BD4724000880B483B000AF7860A2
:10219C0000BF0C37BD4680BC704780B483B000AF25
:1021AC0078600B467B8000BF0C37BD4680BC704707
:1021BC0080B584B000AF78607B685B6AFB607B683D
:1021CC001B681B6803F02003002B13D1FB68002253
:1021DC00DA84FB681B685A69FB681B6822F0800272
:1021EC005A61FB681B68DA68FB681B6842F04002A6
:1021FC00DA6002E0F868FDF7B4FF00BF1037BD46A7
:10220C0080BD80B584B000AF78607B685B6AFB6092
:10221C00F868FDF79DFF00BF1037BD4680BD80B547
:10222C0084B000AF78600023FB607B685B6ABB60A6
:10223C00BB681B685B6903F08003002B14BF012390
:10224C000023DBB2FB60BB6893F83D30DBB2212B83
:10225C0008D1FB68002B05D0BB680022DA84B86873
:10226C0000F0AAF8BB681B685B6903F04003002B05
:10227C0014BF01230023DBB2FB60BB6893F83E3034
:10228C00DBB2222B08D1FB68002B05D0BB680022E7
:10229C00DA85B86800F0A5F8BB681B6C43F0100237
:1022AC00BB681A64B868FFF76FFF00BF1037BD46F4
:1022BC0080BD80B584B000AFF860B9603B60134658
:1022CC00FB712CE0BB69B3F1FF3F28D0BB69002B3D
:1022DC0007D0FEF789FA02463B68D31ABA699A42CC
:1022EC001DD2FB681B68DA68FB681B6822F4D0728D
:1022FC00DA60FB681B685A69FB681B6822F00102F4
:10230C005A61FB68202283F83D20FB68202283F869
:10231C003E20FB68002283F83C2003230FE0FB687F
:10232C001B681A68BB681340BA689A420CBF012339
:10233C000023DBB21A46FB799A42C3D0002318461D
:10234C001037BD4680BD80B485B000AFF860B96071
:10235C001346FB80FB68BA689A62FB68FA889A8518
:10236C00FB68FA88DA85FB6800221A64FB68222273
:10237C0083F83E20FB68002283F83C20FB681B6836
:10238C00DA68FB681B6842F48072DA60FB681B68D1
:10239C005A69FB681B6842F001025A61FB681B68B2
:1023AC00DA68FB681B6842F02002DA6000231846EA
:1023BC001437BD4680BC704780B483B000AF7860E2
:1023CC007B681B68DA687B681B6822F0C002DA60E5
:1023DC007B68202283F83D2000BF0C37BD4680BCB3
:1023EC00704780B483B000AF78607B681B68DA6894
:1023FC007B681B6822F49072DA607B681B685A69F0
:10240C007B681B6822F001025A617B681B6B012BF5
:10241C0007D17B681B68DA687B681B6822F01002A6
:10242C00DA607B68202283F83E207B6800221A63E6
:10243C0000BF0C37BD4680BC704780B584B000AF80
:10244C0078607B685B6AFB60FB680022DA85FB685E
:10245C000022DA84F868FFF797FE00BF1037BD46FC
:10246C0080BD80B485B000AF78607B6893F83D3058
:10247C00DBB2212B3ED17B689B68B3F5805F14D116
:10248C007B681B69002B10D17B681B6AFB60FB68A7
:10249C001B881A467B681B68C2F308025A607B686B
:1024AC001B6A9A1C7B681A6208E07B681B6A591CC1
:1024BC007A6811621A787B681B685A607B68DB8CBF
:1024CC009BB2013B9BB27A681946D184002B0FD189
:1024DC007B681B68DA687B681B6822F08002DA6014
:1024EC007B681B68DA687B681B6842F04002DA6024
:1024FC00002300E0022318461437BD4680BC704709
:10250C0080B582B000AF78607B681B68DA687B6846
:10251C001B6822F04002DA607B68202283F83D20A1
:10252C007868FDF71EFE002318460837BD4680BDAF
:10253C0080B586B000AF78607B6893F83E30DBB234
:10254C00222B40F099807B689B68B3F5805F17D194
:10255C007B681B69002B13D100237B617B689B6A12
:10256C003B617B681B685B689BB2C3F308039AB240
:10257C003B691A807B689B6A9A1C7B689A6226E08E
:10258C007B689B6A7B6100233B617B689B68B3F52E
:10259C00805F07D07B689B68002B0AD17B681B6926
:1025AC00002B06D17B681B685B68DAB27B691A70FA
:1025BC0008E07B681B685B68DBB203F07F03DAB270
:1025CC007B691A707B689B6A5A1C7B689A627B6871
:1025DC00DB8D9BB2013B9BB27A681946D185002BEF
:1025EC0048D17B681B68DA687B681B6822F0200284
:1025FC00DA607B681B68DA687B681B6822F480727F
:10260C00DA607B681B685A697B681B6822F00102E0
:10261C005A617B68202283F83E207B681B6B012B60
:10262C0023D17B6800221A637B681B68DA687B689D
:10263C001B6822F01002DA607B681B681B6803F0D1
:10264C001003102B0AD10023FB607B681B681B68EE
:10265C00FB607B681B685B68FB60FB687B689B8D21
:10266C0019467868FFF799FD02E07868FDF782FD5E
:10267C00002302E0002300E0022318461837BD4671
:10268C0080BD000080B584B000AF78607B681B68AB
:10269C001B6923F440517B68DA687B681B680A432A
:1026AC001A617B689A687B681B691A437B685B6953
:1026BC001343BB607B681B68DB6823F4B05323F0C7
:1026CC000C037A681268B9680B43D3607B681B688B
:1026DC005B6923F440717B689A697B681B680A43C9
:1026EC005A617B681B682C4A934203D1FFF7F4F9BB
:1026FC00F86002E0FFF7DCF9F860FA6813469B001B
:10270C0013449A001A447B685B689B00B2FBF3F39A
:10271C00224AA2FB03235B091901FA6813469B00AA
:10272C0013449A001A447B685B689B00B2FBF3F27B
:10273C001A4BA3FB02035B09642000FB03F3D31ABF
:10274C001B013233154AA2FB03235B0903F0F00390
:10275C001944FA6813469B0013449A001A447B6888
:10276C005B689B00B2FBF3F20C4BA3FB02035B090F
:10277C00642000FB03F3D31A1B013233074AA2FB7C
:10278C0003235B0903F00F027B681B680A449A6001
:10279C0000BF1037BD4680BD003801401F85EB518E
:1027AC00014B1868704700BF0C00002070B5002664
:1027BC000C4D0D4C641BA410A64209D100F05CFC1E
:1027CC0000260A4D0A4C641BA410A64205D170BD0C
:1027DC0055F8043B98470136EEE755F8043B98470B
:1027EC000136F2E7203100082031000820310008C2
:1027FC002431000803460244934200D1704703F889
:10280C00011BF9E70EB46FF0004100B59CB01DAB95
:10281C0002900690079104910848094953F8042B3B
:10282C000591006802A9019300F068F80022029B50
:10283C001A701CB05DF804EB03B070470C0000205C
:10284C000802FFFF2DE9F0478E6882469E420C4637
:10285C0090461F4638D88A8912F4906F32D025687A
:10286C0009690133A5EB010965694B4405EB450585
:10287C0005EBD5756D109D4238BF1D46530531D5FE
:10288C00294600F053FB064650B90C234FF0FF309D
:10289C00CAF80030A38943F04003A381BDE8F08758
:1028AC004A46216900F0CEFAA38923F4906343F0E1
:1028BC008003A38126614E4426603E466561A5EBEC
:1028CC000905A560BE4200D93E4632464146206805
:1028DC0000F0C6FAA36822689B1B32440020A36058
:1028EC002260DBE72A4600F07BFB06460028E1D19C
:1028FC005046216900F0CEFAC7E700002DE9F04FF1
:10290C0098468B8907461B060D4614469DB00ED57E
:10291C000B6963B9402100F009FB2860286120B9DC
:10292C000C233B604FF0FF30D1E040236B61002360
:10293C00099320238DF8293030234FF00109CDF86D
:10294C000C80DFF8A4818DF82A3023469A4613F8C0
:10295C00012B0AB1252AF9D1BAEB040B0BD05B463B
:10296C00224629463846FFF76DFF013000F0AA8059
:10297C00099A5A4409929AF80030002B00F0A28070
:10298C0000234FF0FF32CDE905230AF1010A04932D
:10299C0007938DF853301A935446052214F8011BF3
:1029AC00514800F041FA049AD8B9D00644BF20230C
:1029BC008DF85330110744BF2B238DF853309AF800
:1029CC0000302A2B15D0544600204FF00A0C079AE1
:1029DC00214611F8013B303B092B4ED9B0B107927F
:1029EC0014E0A0EB080309FA03F31343A246049383
:1029FC00D2E7039B191D1B680391002BBBBF5B42E5
:102A0C0042F0020207930793B8BF049223782E2B4F
:102A1C000CD163782A2B35D1039B02341A1D1B6809
:102A2C000392002BB8BF4FF0FF330593DFF8C8A01B
:102A3C0003225046217800F0F7F940B14023A0EB77
:102A4C000A0003FA00F0049B01340343049314F8C6
:102A5C00011B062225488DF8281000F0E5F9002806
:102A6C0038D0234B1BBB039B073323F007030833DE
:102A7C000393099B3344099367E70C4601200CFB35
:102A8C000232A5E700234FF00A0C194601340593D6
:102A9C00204610F8012B303A092A03D9002BC5D057
:102AAC000591C3E7044601230CFB0121F0E703ABBE
:102ABC0000932A4638460F4B04A9AFF30080421C02
:102ACC000646D6D1AB895B063FF52CAF09981DB0F5
:102ADC00BDE8F08F03AB00932A463846054B04A99A
:102AEC0000F07CF8EBE700BFEC300008F630000893
:102AFC000000000051280008F23000082DE9F047D2
:102B0C00164699468A680B6907469342B8BF134626
:102B1C00336091F843200C46DDF820800AB1013374
:102B2C0033602368990642BF3368023333602568EB
:102B3C0015F0060506D104F1190AE36832689B1AF0
:102B4C00AB4228DC94F84320131E226818BF0123E3
:102B5C0092062DD44946384604F14302C047013051
:102B6C0020D02368E56803F00603042B18BF00256A
:102B7C0032684FF00006A36808BFAD1A226908BF7F
:102B8C0025EAE5759342C4BF9B1AED181A34B54279
:102B9C001AD1002008E00123524649463846C04766
:102BAC00013003D14FF0FF30BDE8F0870135C4E7A9
:102BBC003020E11881F843005A1C94F84510224447
:102BCC00023382F84310C5E70123224649463846B2
:102BDC00C0470130E6D00136D9E700002DE9FF47A8
:102BEC000C46277E9146782F80469A460C9904F124
:102BFC00430207D8622F0AD8002F00F0D980582F33
:102C0C0000F0A48004F1420684F842703AE0A7F187
:102C1C006303152BF6D801A050F823F0812C000883
:102C2C00952C0008112C0008112C0008112C000800
:102C3C00112C0008952C0008112C0008112C0008F0
:102C4C00112C0008112C0008A32D0008C52C00081D
:102C5C00852D0008112C0008112C0008C52D00082A
:102C6C00112C0008C52C0008112C0008112C000890
:102C7C008D2D00080B6804F142061A1D1B680A60B2
:102C8C0084F842300123A4E0256808682E0600F180
:102C9C0004030AD505680B60002D03DA2D236D4261
:102CAC0084F843300A235E4819E015F0400F05689C
:102CBC000B6018BF2DB2EFE70B682568181D086074
:102CCC00280601D51D6802E06906FBD51D886F2F0B
:102CDC000CBF08230A235248002184F8431066686D
:102CEC00002EA8BF2168A660A4BF21F004012160BA
:102CFC000DB9002E4DD01646B5FBF3F103FB115761
:102D0C00C75D06F8017D2F46BB420D46F4D9082B52
:102D1C000BD12368DF0708D5236961689942DEBFB0
:102D2C00302306F8013C06F1FF36921B22614B461C
:102D3C0021464046CDF800A003AAFFF7DFFE013084
:102D4C004CD14FF0FF3004B0BDE8F087344884F824
:102D5C0045700E68236856F8045B1F060E6014D588
:102D6C00D90744BF43F0200323601DB9236823F027
:102D7C00200323601023AFE7236843F02003236074
:102D8C007823284884F84530E3E75E0648BFADB2A7
:102D9C00E6E71646BBE70B6826681D1D60690D60EB
:102DAC0035061B6801D5186002E07106FBD518804A
:102DBC00002316462361BAE70B681A1D0A601E68C9
:102DCC0000213046626800F02FF808B1801B60606B
:102DDC0063682361002384F84330A8E732464946F0
:102DEC0040462369D0470130ABD023689B0713D4EE
:102DFC00E068039B9842B8BF1846A4E7012332460B
:102E0C0049464046D04701309BD00135E3680399D1
:102E1C005B1AAB42F2DCEBE7002504F11906F5E78F
:102E2C00FD3000080E310008034610B5C9B202444B
:102E3C009342184601D1002003E0047801338C4200
:102E4C00F6D110BD0A44914200F1FF3300D1704716
:102E5C0010B511F8014B914203F8014FF9D110BD97
:102E6C00884210B501EB020402D98442234607D8EC
:102E7C00431EA14208D011F8012B03F8012FF8E7EB
:102E8C00014602448A4200D110BD13F8014D02F8EC
:102E9C00014DF7E738B50546002943D051F8043CFD
:102EAC000C1F002BB8BFE41800F0D0F81E4A1368B2
:102EBC00104633B9636014602846BDE8384000F012
:102ECC00CBB8A3420AD921686218934201BF1A6891
:102EDC005B685218226063600460EDE71A465B6819
:102EEC000BB1A342FAD911685018A0420BD120683B
:102EFC000144501883421160DED118685B680144AC
:102F0C0011605360D8E702D90C232B60D4E72068FA
:102F1C0021188B4201BF19685B6809182160636036
:102F2C005460C9E738BD00BF38010020F8B5CD1C8E
:102F3C0025F0030508350C2D38BF0C25002D064651
:102F4C0001DBA94203D90C2333600020F8BD00F04B
:102F5C007DF821490A6814469CB9204F3B6823B977
:102F6C002146304600F062F838602946304600F0C1
:102F7C005DF8431C23D10C233046336000F06CF811
:102F8C00E3E723685B1B17D40B2B03D923601C448A
:102F9C00256004E06368A2420CBF0B6053603046AE
:102FAC0000F05AF804F10B00231D20F00700C21AA0
:102FBC00CCD01B1AA350C9E722466468CCE7C41CCA
:102FCC0024F00304A042E3D0211A304600F02EF87E
:102FDC000130DDD1CFE700BF380100203C010020DB
:102FEC00F8B5074614460E4621B91146BDE8F8401F
:102FFC00FFF79CBF22B9FFF74DFF25462846F8BDC9
:10300C0000F030F8A0420FD221463846FFF78EFF71
:10301C0005460028F2D031462246FFF713FF314611
:10302C003846FFF737FFE9E73546E7E738B50023C1
:10303C00054D044608462B60FDF71CFB431C02D1D2
:10304C002B6803B1236038BDCC010020014800F08F
:10305C0011B800BFD4010020014800F00CB800BF2B
:10306C00D401002051F8043C181F002BBCBF0B5896
:10307C00C018704770477047F8B500BFF8BC08BC63
:10308C009E467047F8B500BFF8BC08BC9E4670471A
:10309C0043616C6C6261636B0D0A0000666C61735A
:1030AC00685F656469745F73746172740D0A000003
:1030BC006C65640D0A00000002030405060708098C
:1030CC000A0B0C0D0E0F1010000000000000000089
:1030DC0001020304060708090000000001020304B2
:1030EC00232D302B2000686C4C00656667454647E5
:1030FC000030313233343536373839414243444568
:10310C0046003031323334353637383961626364D6
:04311C0065660000E4
:043120003101000871
:043124000D01000891
:103128000024F4001000000001000000100000203E
:103138000000000000000000000000000000000087
:103148000000000000000000000000000000000077
:103158000000000000000000000000000000000067
:103168000000000000000000000000000000000057
:103178000000000000000000000000000000000047
:103188000000000000000000000000000000000037
:04000005080006F9F0
:00000001FF
